{
	"contracts/Tutorial/Escrow.sol": {
		"Escrow": {
			"abi": [
				{
					"inputs": [],
					"stateMutability": "payable",
					"type": "constructor"
				},
				{
					"inputs": [
						{
							"internalType": "address",
							"name": "payee",
							"type": "address"
						}
					],
					"name": "deposit",
					"outputs": [],
					"stateMutability": "payable",
					"type": "function"
				},
				{
					"inputs": [
						{
							"internalType": "address",
							"name": "",
							"type": "address"
						}
					],
					"name": "deposits",
					"outputs": [
						{
							"internalType": "uint256",
							"name": "",
							"type": "uint256"
						}
					],
					"stateMutability": "view",
					"type": "function"
				},
				{
					"inputs": [
						{
							"internalType": "address payable",
							"name": "payee",
							"type": "address"
						}
					],
					"name": "withdraw",
					"outputs": [],
					"stateMutability": "nonpayable",
					"type": "function"
				}
			],
			"devdoc": {
				"kind": "dev",
				"methods": {},
				"version": 1
			},
			"evm": {
				"assembly": "    /* \"contracts/Tutorial/Escrow.sol\":247:1400  contract Escrow {... */\n  mstore(0x40, 0x80)\n    /* \"contracts/Tutorial/Escrow.sol\":609:619  msg.sender */\n  caller\n    /* \"contracts/Tutorial/Escrow.sol\":601:606  agent */\n  0x00\n  dup1\n    /* \"contracts/Tutorial/Escrow.sol\":601:619  agent = msg.sender */\n  0x0100\n  exp\n  dup2\n  sload\n  dup2\n  0xffffffffffffffffffffffffffffffffffffffff\n  mul\n  not\n  and\n  swap1\n  dup4\n  0xffffffffffffffffffffffffffffffffffffffff\n  and\n  mul\n  or\n  swap1\n  sstore\n  pop\n    /* \"contracts/Tutorial/Escrow.sol\":247:1400  contract Escrow {... */\n  dataSize(sub_0)\n  dup1\n  dataOffset(sub_0)\n  0x00\n  codecopy\n  0x00\n  return\nstop\n\nsub_0: assembly {\n        /* \"contracts/Tutorial/Escrow.sol\":247:1400  contract Escrow {... */\n      mstore(0x40, 0x80)\n      jumpi(tag_1, lt(calldatasize, 0x04))\n      shr(0xe0, calldataload(0x00))\n      dup1\n      0x51cff8d9\n      eq\n      tag_2\n      jumpi\n      dup1\n      0xf340fa01\n      eq\n      tag_3\n      jumpi\n      dup1\n      0xfc7e286d\n      eq\n      tag_4\n      jumpi\n    tag_1:\n      0x00\n      dup1\n      revert\n        /* \"contracts/Tutorial/Escrow.sol\":1224:1393  function withdraw(address payable payee) public onlyAgent{... */\n    tag_2:\n      callvalue\n      dup1\n      iszero\n      tag_5\n      jumpi\n      0x00\n      dup1\n      revert\n    tag_5:\n      pop\n      tag_6\n      0x04\n      dup1\n      calldatasize\n      sub\n      dup2\n      add\n      swap1\n      tag_7\n      swap2\n      swap1\n      tag_8\n      jump\t// in\n    tag_7:\n      tag_9\n      jump\t// in\n    tag_6:\n      stop\n        /* \"contracts/Tutorial/Escrow.sol\":808:1145  function deposit(address payee) public onlyAgent payable{ //payable = .transfer, .send와 같은 이더 전송 함수 사용가능 ... */\n    tag_3:\n      tag_10\n      0x04\n      dup1\n      calldatasize\n      sub\n      dup2\n      add\n      swap1\n      tag_11\n      swap2\n      swap1\n      tag_12\n      jump\t// in\n    tag_11:\n      tag_13\n      jump\t// in\n    tag_10:\n      stop\n        /* \"contracts/Tutorial/Escrow.sol\":326:369  mapping(address => uint256) public deposits */\n    tag_4:\n      callvalue\n      dup1\n      iszero\n      tag_14\n      jumpi\n      0x00\n      dup1\n      revert\n    tag_14:\n      pop\n      tag_15\n      0x04\n      dup1\n      calldatasize\n      sub\n      dup2\n      add\n      swap1\n      tag_16\n      swap2\n      swap1\n      tag_12\n      jump\t// in\n    tag_16:\n      tag_17\n      jump\t// in\n    tag_15:\n      mload(0x40)\n      tag_18\n      swap2\n      swap1\n      tag_19\n      jump\t// in\n    tag_18:\n      mload(0x40)\n      dup1\n      swap2\n      sub\n      swap1\n      return\n        /* \"contracts/Tutorial/Escrow.sol\":1224:1393  function withdraw(address payable payee) public onlyAgent{... */\n    tag_9:\n        /* \"contracts/Tutorial/Escrow.sol\":488:493  agent */\n      0x00\n      dup1\n      sload\n      swap1\n      0x0100\n      exp\n      swap1\n      div\n      0xffffffffffffffffffffffffffffffffffffffff\n      and\n        /* \"contracts/Tutorial/Escrow.sol\":474:493  msg.sender == agent */\n      0xffffffffffffffffffffffffffffffffffffffff\n      and\n        /* \"contracts/Tutorial/Escrow.sol\":474:484  msg.sender */\n      caller\n        /* \"contracts/Tutorial/Escrow.sol\":474:493  msg.sender == agent */\n      0xffffffffffffffffffffffffffffffffffffffff\n      and\n      eq\n        /* \"contracts/Tutorial/Escrow.sol\":466:494  require(msg.sender == agent) */\n      tag_21\n      jumpi\n      0x00\n      dup1\n      revert\n    tag_21:\n        /* \"contracts/Tutorial/Escrow.sol\":1291:1306  uint256 payment */\n      0x00\n        /* \"contracts/Tutorial/Escrow.sol\":1309:1317  deposits */\n      0x01\n        /* \"contracts/Tutorial/Escrow.sol\":1309:1324  deposits[payee] */\n      0x00\n        /* \"contracts/Tutorial/Escrow.sol\":1318:1323  payee */\n      dup4\n        /* \"contracts/Tutorial/Escrow.sol\":1309:1324  deposits[payee] */\n      0xffffffffffffffffffffffffffffffffffffffff\n      and\n      0xffffffffffffffffffffffffffffffffffffffff\n      and\n      dup2\n      mstore\n      0x20\n      add\n      swap1\n      dup2\n      mstore\n      0x20\n      add\n      0x00\n      keccak256\n      sload\n        /* \"contracts/Tutorial/Escrow.sol\":1291:1324  uint256 payment = deposits[payee] */\n      swap1\n      pop\n        /* \"contracts/Tutorial/Escrow.sol\":1352:1353  0 */\n      0x00\n        /* \"contracts/Tutorial/Escrow.sol\":1334:1342  deposits */\n      0x01\n        /* \"contracts/Tutorial/Escrow.sol\":1334:1349  deposits[payee] */\n      0x00\n        /* \"contracts/Tutorial/Escrow.sol\":1343:1348  payee */\n      dup5\n        /* \"contracts/Tutorial/Escrow.sol\":1334:1349  deposits[payee] */\n      0xffffffffffffffffffffffffffffffffffffffff\n      and\n      0xffffffffffffffffffffffffffffffffffffffff\n      and\n      dup2\n      mstore\n      0x20\n      add\n      swap1\n      dup2\n      mstore\n      0x20\n      add\n      0x00\n      keccak256\n        /* \"contracts/Tutorial/Escrow.sol\":1334:1353  deposits[payee] = 0 */\n      dup2\n      swap1\n      sstore\n      pop\n        /* \"contracts/Tutorial/Escrow.sol\":1363:1368  payee */\n      dup2\n        /* \"contracts/Tutorial/Escrow.sol\":1363:1377  payee.transfer */\n      0xffffffffffffffffffffffffffffffffffffffff\n      and\n        /* \"contracts/Tutorial/Escrow.sol\":1363:1386  payee.transfer(payment) */\n      0x08fc\n        /* \"contracts/Tutorial/Escrow.sol\":1378:1385  payment */\n      dup3\n        /* \"contracts/Tutorial/Escrow.sol\":1363:1386  payee.transfer(payment) */\n      swap1\n      dup2\n      iszero\n      mul\n      swap1\n      mload(0x40)\n      0x00\n      mload(0x40)\n      dup1\n      dup4\n      sub\n      dup2\n      dup6\n      dup9\n      dup9\n      call\n      swap4\n      pop\n      pop\n      pop\n      pop\n      iszero\n      dup1\n      iszero\n      tag_24\n      jumpi\n      returndatasize\n      0x00\n      dup1\n      returndatacopy\n      revert(0x00, returndatasize)\n    tag_24:\n      pop\n        /* \"contracts/Tutorial/Escrow.sol\":1281:1393  {... */\n      pop\n        /* \"contracts/Tutorial/Escrow.sol\":1224:1393  function withdraw(address payable payee) public onlyAgent{... */\n      pop\n      jump\t// out\n        /* \"contracts/Tutorial/Escrow.sol\":808:1145  function deposit(address payee) public onlyAgent payable{ //payable = .transfer, .send와 같은 이더 전송 함수 사용가능 ... */\n    tag_13:\n        /* \"contracts/Tutorial/Escrow.sol\":488:493  agent */\n      0x00\n      dup1\n      sload\n      swap1\n      0x0100\n      exp\n      swap1\n      div\n      0xffffffffffffffffffffffffffffffffffffffff\n      and\n        /* \"contracts/Tutorial/Escrow.sol\":474:493  msg.sender == agent */\n      0xffffffffffffffffffffffffffffffffffffffff\n      and\n        /* \"contracts/Tutorial/Escrow.sol\":474:484  msg.sender */\n      caller\n        /* \"contracts/Tutorial/Escrow.sol\":474:493  msg.sender == agent */\n      0xffffffffffffffffffffffffffffffffffffffff\n      and\n      eq\n        /* \"contracts/Tutorial/Escrow.sol\":466:494  require(msg.sender == agent) */\n      tag_26\n      jumpi\n      0x00\n      dup1\n      revert\n    tag_26:\n        /* \"contracts/Tutorial/Escrow.sol\":948:962  uint256 amount */\n      0x00\n        /* \"contracts/Tutorial/Escrow.sol\":965:974  msg.value */\n      callvalue\n        /* \"contracts/Tutorial/Escrow.sol\":948:974  uint256 amount = msg.value */\n      swap1\n      pop\n        /* \"contracts/Tutorial/Escrow.sol\":1132:1138  amount */\n      dup1\n        /* \"contracts/Tutorial/Escrow.sol\":1114:1122  deposits */\n      0x01\n        /* \"contracts/Tutorial/Escrow.sol\":1114:1129  deposits[payee] */\n      0x00\n        /* \"contracts/Tutorial/Escrow.sol\":1123:1128  payee */\n      dup5\n        /* \"contracts/Tutorial/Escrow.sol\":1114:1129  deposits[payee] */\n      0xffffffffffffffffffffffffffffffffffffffff\n      and\n      0xffffffffffffffffffffffffffffffffffffffff\n      and\n      dup2\n      mstore\n      0x20\n      add\n      swap1\n      dup2\n      mstore\n      0x20\n      add\n      0x00\n      keccak256\n      sload\n        /* \"contracts/Tutorial/Escrow.sol\":1114:1138  deposits[payee] + amount */\n      tag_28\n      swap2\n      swap1\n      tag_29\n      jump\t// in\n    tag_28:\n        /* \"contracts/Tutorial/Escrow.sol\":1096:1104  deposits */\n      0x01\n        /* \"contracts/Tutorial/Escrow.sol\":1096:1111  deposits[payee] */\n      0x00\n        /* \"contracts/Tutorial/Escrow.sol\":1105:1110  payee */\n      dup5\n        /* \"contracts/Tutorial/Escrow.sol\":1096:1111  deposits[payee] */\n      0xffffffffffffffffffffffffffffffffffffffff\n      and\n      0xffffffffffffffffffffffffffffffffffffffff\n      and\n      dup2\n      mstore\n      0x20\n      add\n      swap1\n      dup2\n      mstore\n      0x20\n      add\n      0x00\n      keccak256\n        /* \"contracts/Tutorial/Escrow.sol\":1096:1138  deposits[payee] = deposits[payee] + amount */\n      dup2\n      swap1\n      sstore\n      pop\n        /* \"contracts/Tutorial/Escrow.sol\":864:1145  { //payable = .transfer, .send와 같은 이더 전송 함수 사용가능 ... */\n      pop\n        /* \"contracts/Tutorial/Escrow.sol\":808:1145  function deposit(address payee) public onlyAgent payable{ //payable = .transfer, .send와 같은 이더 전송 함수 사용가능 ... */\n      pop\n      jump\t// out\n        /* \"contracts/Tutorial/Escrow.sol\":326:369  mapping(address => uint256) public deposits */\n    tag_17:\n      mstore(0x20, 0x01)\n      dup1\n      0x00\n      mstore\n      keccak256(0x00, 0x40)\n      0x00\n      swap2\n      pop\n      swap1\n      pop\n      sload\n      dup2\n      jump\t// out\n        /* \"#utility.yul\":88:205   */\n    tag_31:\n        /* \"#utility.yul\":197:198   */\n      0x00\n        /* \"#utility.yul\":194:195   */\n      dup1\n        /* \"#utility.yul\":187:199   */\n      revert\n        /* \"#utility.yul\":334:460   */\n    tag_33:\n        /* \"#utility.yul\":371:378   */\n      0x00\n        /* \"#utility.yul\":411:453   */\n      0xffffffffffffffffffffffffffffffffffffffff\n        /* \"#utility.yul\":404:409   */\n      dup3\n        /* \"#utility.yul\":400:454   */\n      and\n        /* \"#utility.yul\":389:454   */\n      swap1\n      pop\n        /* \"#utility.yul\":334:460   */\n      swap2\n      swap1\n      pop\n      jump\t// out\n        /* \"#utility.yul\":466:570   */\n    tag_34:\n        /* \"#utility.yul\":511:518   */\n      0x00\n        /* \"#utility.yul\":540:564   */\n      tag_49\n        /* \"#utility.yul\":558:563   */\n      dup3\n        /* \"#utility.yul\":540:564   */\n      tag_33\n      jump\t// in\n    tag_49:\n        /* \"#utility.yul\":529:564   */\n      swap1\n      pop\n        /* \"#utility.yul\":466:570   */\n      swap2\n      swap1\n      pop\n      jump\t// out\n        /* \"#utility.yul\":576:714   */\n    tag_35:\n        /* \"#utility.yul\":657:689   */\n      tag_51\n        /* \"#utility.yul\":683:688   */\n      dup2\n        /* \"#utility.yul\":657:689   */\n      tag_34\n      jump\t// in\n    tag_51:\n        /* \"#utility.yul\":650:655   */\n      dup2\n        /* \"#utility.yul\":647:690   */\n      eq\n        /* \"#utility.yul\":637:708   */\n      tag_52\n      jumpi\n        /* \"#utility.yul\":704:705   */\n      0x00\n        /* \"#utility.yul\":701:702   */\n      dup1\n        /* \"#utility.yul\":694:706   */\n      revert\n        /* \"#utility.yul\":637:708   */\n    tag_52:\n        /* \"#utility.yul\":576:714   */\n      pop\n      jump\t// out\n        /* \"#utility.yul\":720:875   */\n    tag_36:\n        /* \"#utility.yul\":774:779   */\n      0x00\n        /* \"#utility.yul\":812:818   */\n      dup2\n        /* \"#utility.yul\":799:819   */\n      calldataload\n        /* \"#utility.yul\":790:819   */\n      swap1\n      pop\n        /* \"#utility.yul\":828:869   */\n      tag_54\n        /* \"#utility.yul\":863:868   */\n      dup2\n        /* \"#utility.yul\":828:869   */\n      tag_35\n      jump\t// in\n    tag_54:\n        /* \"#utility.yul\":720:875   */\n      swap3\n      swap2\n      pop\n      pop\n      jump\t// out\n        /* \"#utility.yul\":881:1226   */\n    tag_8:\n        /* \"#utility.yul\":948:954   */\n      0x00\n        /* \"#utility.yul\":997:999   */\n      0x20\n        /* \"#utility.yul\":985:994   */\n      dup3\n        /* \"#utility.yul\":976:983   */\n      dup5\n        /* \"#utility.yul\":972:995   */\n      sub\n        /* \"#utility.yul\":968:1000   */\n      slt\n        /* \"#utility.yul\":965:1084   */\n      iszero\n      tag_56\n      jumpi\n        /* \"#utility.yul\":1003:1082   */\n      tag_57\n      tag_31\n      jump\t// in\n    tag_57:\n        /* \"#utility.yul\":965:1084   */\n    tag_56:\n        /* \"#utility.yul\":1123:1124   */\n      0x00\n        /* \"#utility.yul\":1148:1209   */\n      tag_58\n        /* \"#utility.yul\":1201:1208   */\n      dup5\n        /* \"#utility.yul\":1192:1198   */\n      dup3\n        /* \"#utility.yul\":1181:1190   */\n      dup6\n        /* \"#utility.yul\":1177:1199   */\n      add\n        /* \"#utility.yul\":1148:1209   */\n      tag_36\n      jump\t// in\n    tag_58:\n        /* \"#utility.yul\":1138:1209   */\n      swap2\n      pop\n        /* \"#utility.yul\":1094:1219   */\n      pop\n        /* \"#utility.yul\":881:1226   */\n      swap3\n      swap2\n      pop\n      pop\n      jump\t// out\n        /* \"#utility.yul\":1232:1328   */\n    tag_37:\n        /* \"#utility.yul\":1269:1276   */\n      0x00\n        /* \"#utility.yul\":1298:1322   */\n      tag_60\n        /* \"#utility.yul\":1316:1321   */\n      dup3\n        /* \"#utility.yul\":1298:1322   */\n      tag_33\n      jump\t// in\n    tag_60:\n        /* \"#utility.yul\":1287:1322   */\n      swap1\n      pop\n        /* \"#utility.yul\":1232:1328   */\n      swap2\n      swap1\n      pop\n      jump\t// out\n        /* \"#utility.yul\":1334:1456   */\n    tag_38:\n        /* \"#utility.yul\":1407:1431   */\n      tag_62\n        /* \"#utility.yul\":1425:1430   */\n      dup2\n        /* \"#utility.yul\":1407:1431   */\n      tag_37\n      jump\t// in\n    tag_62:\n        /* \"#utility.yul\":1400:1405   */\n      dup2\n        /* \"#utility.yul\":1397:1432   */\n      eq\n        /* \"#utility.yul\":1387:1450   */\n      tag_63\n      jumpi\n        /* \"#utility.yul\":1446:1447   */\n      0x00\n        /* \"#utility.yul\":1443:1444   */\n      dup1\n        /* \"#utility.yul\":1436:1448   */\n      revert\n        /* \"#utility.yul\":1387:1450   */\n    tag_63:\n        /* \"#utility.yul\":1334:1456   */\n      pop\n      jump\t// out\n        /* \"#utility.yul\":1462:1601   */\n    tag_39:\n        /* \"#utility.yul\":1508:1513   */\n      0x00\n        /* \"#utility.yul\":1546:1552   */\n      dup2\n        /* \"#utility.yul\":1533:1553   */\n      calldataload\n        /* \"#utility.yul\":1524:1553   */\n      swap1\n      pop\n        /* \"#utility.yul\":1562:1595   */\n      tag_65\n        /* \"#utility.yul\":1589:1594   */\n      dup2\n        /* \"#utility.yul\":1562:1595   */\n      tag_38\n      jump\t// in\n    tag_65:\n        /* \"#utility.yul\":1462:1601   */\n      swap3\n      swap2\n      pop\n      pop\n      jump\t// out\n        /* \"#utility.yul\":1607:1936   */\n    tag_12:\n        /* \"#utility.yul\":1666:1672   */\n      0x00\n        /* \"#utility.yul\":1715:1717   */\n      0x20\n        /* \"#utility.yul\":1703:1712   */\n      dup3\n        /* \"#utility.yul\":1694:1701   */\n      dup5\n        /* \"#utility.yul\":1690:1713   */\n      sub\n        /* \"#utility.yul\":1686:1718   */\n      slt\n        /* \"#utility.yul\":1683:1802   */\n      iszero\n      tag_67\n      jumpi\n        /* \"#utility.yul\":1721:1800   */\n      tag_68\n      tag_31\n      jump\t// in\n    tag_68:\n        /* \"#utility.yul\":1683:1802   */\n    tag_67:\n        /* \"#utility.yul\":1841:1842   */\n      0x00\n        /* \"#utility.yul\":1866:1919   */\n      tag_69\n        /* \"#utility.yul\":1911:1918   */\n      dup5\n        /* \"#utility.yul\":1902:1908   */\n      dup3\n        /* \"#utility.yul\":1891:1900   */\n      dup6\n        /* \"#utility.yul\":1887:1909   */\n      add\n        /* \"#utility.yul\":1866:1919   */\n      tag_39\n      jump\t// in\n    tag_69:\n        /* \"#utility.yul\":1856:1919   */\n      swap2\n      pop\n        /* \"#utility.yul\":1812:1929   */\n      pop\n        /* \"#utility.yul\":1607:1936   */\n      swap3\n      swap2\n      pop\n      pop\n      jump\t// out\n        /* \"#utility.yul\":1942:2019   */\n    tag_40:\n        /* \"#utility.yul\":1979:1986   */\n      0x00\n        /* \"#utility.yul\":2008:2013   */\n      dup2\n        /* \"#utility.yul\":1997:2013   */\n      swap1\n      pop\n        /* \"#utility.yul\":1942:2019   */\n      swap2\n      swap1\n      pop\n      jump\t// out\n        /* \"#utility.yul\":2025:2143   */\n    tag_41:\n        /* \"#utility.yul\":2112:2136   */\n      tag_72\n        /* \"#utility.yul\":2130:2135   */\n      dup2\n        /* \"#utility.yul\":2112:2136   */\n      tag_40\n      jump\t// in\n    tag_72:\n        /* \"#utility.yul\":2107:2110   */\n      dup3\n        /* \"#utility.yul\":2100:2137   */\n      mstore\n        /* \"#utility.yul\":2025:2143   */\n      pop\n      pop\n      jump\t// out\n        /* \"#utility.yul\":2149:2371   */\n    tag_19:\n        /* \"#utility.yul\":2242:2246   */\n      0x00\n        /* \"#utility.yul\":2280:2282   */\n      0x20\n        /* \"#utility.yul\":2269:2278   */\n      dup3\n        /* \"#utility.yul\":2265:2283   */\n      add\n        /* \"#utility.yul\":2257:2283   */\n      swap1\n      pop\n        /* \"#utility.yul\":2293:2364   */\n      tag_74\n        /* \"#utility.yul\":2361:2362   */\n      0x00\n        /* \"#utility.yul\":2350:2359   */\n      dup4\n        /* \"#utility.yul\":2346:2363   */\n      add\n        /* \"#utility.yul\":2337:2343   */\n      dup5\n        /* \"#utility.yul\":2293:2364   */\n      tag_41\n      jump\t// in\n    tag_74:\n        /* \"#utility.yul\":2149:2371   */\n      swap3\n      swap2\n      pop\n      pop\n      jump\t// out\n        /* \"#utility.yul\":2377:2557   */\n    tag_42:\n        /* \"#utility.yul\":2425:2502   */\n      0x4e487b7100000000000000000000000000000000000000000000000000000000\n        /* \"#utility.yul\":2422:2423   */\n      0x00\n        /* \"#utility.yul\":2415:2503   */\n      mstore\n        /* \"#utility.yul\":2522:2526   */\n      0x11\n        /* \"#utility.yul\":2519:2520   */\n      0x04\n        /* \"#utility.yul\":2512:2527   */\n      mstore\n        /* \"#utility.yul\":2546:2550   */\n      0x24\n        /* \"#utility.yul\":2543:2544   */\n      0x00\n        /* \"#utility.yul\":2536:2551   */\n      revert\n        /* \"#utility.yul\":2563:2754   */\n    tag_29:\n        /* \"#utility.yul\":2603:2606   */\n      0x00\n        /* \"#utility.yul\":2622:2642   */\n      tag_77\n        /* \"#utility.yul\":2640:2641   */\n      dup3\n        /* \"#utility.yul\":2622:2642   */\n      tag_40\n      jump\t// in\n    tag_77:\n        /* \"#utility.yul\":2617:2642   */\n      swap2\n      pop\n        /* \"#utility.yul\":2656:2676   */\n      tag_78\n        /* \"#utility.yul\":2674:2675   */\n      dup4\n        /* \"#utility.yul\":2656:2676   */\n      tag_40\n      jump\t// in\n    tag_78:\n        /* \"#utility.yul\":2651:2676   */\n      swap3\n      pop\n        /* \"#utility.yul\":2699:2700   */\n      dup3\n        /* \"#utility.yul\":2696:2697   */\n      dup3\n        /* \"#utility.yul\":2692:2701   */\n      add\n        /* \"#utility.yul\":2685:2701   */\n      swap1\n      pop\n        /* \"#utility.yul\":2720:2723   */\n      dup1\n        /* \"#utility.yul\":2717:2718   */\n      dup3\n        /* \"#utility.yul\":2714:2724   */\n      gt\n        /* \"#utility.yul\":2711:2747   */\n      iszero\n      tag_79\n      jumpi\n        /* \"#utility.yul\":2727:2745   */\n      tag_80\n      tag_42\n      jump\t// in\n    tag_80:\n        /* \"#utility.yul\":2711:2747   */\n    tag_79:\n        /* \"#utility.yul\":2563:2754   */\n      swap3\n      swap2\n      pop\n      pop\n      jump\t// out\n\n    auxdata: 0xa264697066735822122096e6d5baaf77136d532e5cfb0c83890ca82d29fb889625928cecbaf005fe856664736f6c634300081a0033\n}\n",
				"bytecode": {
					"linkReferences": {},
					"object": "6080604052335f806101000a81548173ffffffffffffffffffffffffffffffffffffffff021916908373ffffffffffffffffffffffffffffffffffffffff16021790555061048b806100505f395ff3fe608060405260043610610033575f3560e01c806351cff8d914610037578063f340fa011461005f578063fc7e286d1461007b575b5f80fd5b348015610042575f80fd5b5061005d60048036038101906100589190610333565b6100b7565b005b61007960048036038101906100749190610399565b6101d8565b005b348015610086575f80fd5b506100a1600480360381019061009c9190610399565b6102c0565b6040516100ae91906103dc565b60405180910390f35b5f8054906101000a900473ffffffffffffffffffffffffffffffffffffffff1673ffffffffffffffffffffffffffffffffffffffff163373ffffffffffffffffffffffffffffffffffffffff161461010d575f80fd5b5f60015f8373ffffffffffffffffffffffffffffffffffffffff1673ffffffffffffffffffffffffffffffffffffffff1681526020019081526020015f205490505f60015f8473ffffffffffffffffffffffffffffffffffffffff1673ffffffffffffffffffffffffffffffffffffffff1681526020019081526020015f20819055508173ffffffffffffffffffffffffffffffffffffffff166108fc8290811502906040515f60405180830381858888f193505050501580156101d3573d5f803e3d5ffd5b505050565b5f8054906101000a900473ffffffffffffffffffffffffffffffffffffffff1673ffffffffffffffffffffffffffffffffffffffff163373ffffffffffffffffffffffffffffffffffffffff161461022e575f80fd5b5f3490508060015f8473ffffffffffffffffffffffffffffffffffffffff1673ffffffffffffffffffffffffffffffffffffffff1681526020019081526020015f205461027b9190610422565b60015f8473ffffffffffffffffffffffffffffffffffffffff1673ffffffffffffffffffffffffffffffffffffffff1681526020019081526020015f20819055505050565b6001602052805f5260405f205f915090505481565b5f80fd5b5f73ffffffffffffffffffffffffffffffffffffffff82169050919050565b5f610302826102d9565b9050919050565b610312816102f8565b811461031c575f80fd5b50565b5f8135905061032d81610309565b92915050565b5f60208284031215610348576103476102d5565b5b5f6103558482850161031f565b91505092915050565b5f610368826102d9565b9050919050565b6103788161035e565b8114610382575f80fd5b50565b5f813590506103938161036f565b92915050565b5f602082840312156103ae576103ad6102d5565b5b5f6103bb84828501610385565b91505092915050565b5f819050919050565b6103d6816103c4565b82525050565b5f6020820190506103ef5f8301846103cd565b92915050565b7f4e487b71000000000000000000000000000000000000000000000000000000005f52601160045260245ffd5b5f61042c826103c4565b9150610437836103c4565b925082820190508082111561044f5761044e6103f5565b5b9291505056fea264697066735822122096e6d5baaf77136d532e5cfb0c83890ca82d29fb889625928cecbaf005fe856664736f6c634300081a0033",
					"opcodes": "PUSH1 0x80 PUSH1 0x40 MSTORE CALLER PUSH0 DUP1 PUSH2 0x100 EXP DUP2 SLOAD DUP2 PUSH20 0xFFFFFFFFFFFFFFFFFFFFFFFFFFFFFFFFFFFFFFFF MUL NOT AND SWAP1 DUP4 PUSH20 0xFFFFFFFFFFFFFFFFFFFFFFFFFFFFFFFFFFFFFFFF AND MUL OR SWAP1 SSTORE POP PUSH2 0x48B DUP1 PUSH2 0x50 PUSH0 CODECOPY PUSH0 RETURN INVALID PUSH1 0x80 PUSH1 0x40 MSTORE PUSH1 0x4 CALLDATASIZE LT PUSH2 0x33 JUMPI PUSH0 CALLDATALOAD PUSH1 0xE0 SHR DUP1 PUSH4 0x51CFF8D9 EQ PUSH2 0x37 JUMPI DUP1 PUSH4 0xF340FA01 EQ PUSH2 0x5F JUMPI DUP1 PUSH4 0xFC7E286D EQ PUSH2 0x7B JUMPI JUMPDEST PUSH0 DUP1 REVERT JUMPDEST CALLVALUE DUP1 ISZERO PUSH2 0x42 JUMPI PUSH0 DUP1 REVERT JUMPDEST POP PUSH2 0x5D PUSH1 0x4 DUP1 CALLDATASIZE SUB DUP2 ADD SWAP1 PUSH2 0x58 SWAP2 SWAP1 PUSH2 0x333 JUMP JUMPDEST PUSH2 0xB7 JUMP JUMPDEST STOP JUMPDEST PUSH2 0x79 PUSH1 0x4 DUP1 CALLDATASIZE SUB DUP2 ADD SWAP1 PUSH2 0x74 SWAP2 SWAP1 PUSH2 0x399 JUMP JUMPDEST PUSH2 0x1D8 JUMP JUMPDEST STOP JUMPDEST CALLVALUE DUP1 ISZERO PUSH2 0x86 JUMPI PUSH0 DUP1 REVERT JUMPDEST POP PUSH2 0xA1 PUSH1 0x4 DUP1 CALLDATASIZE SUB DUP2 ADD SWAP1 PUSH2 0x9C SWAP2 SWAP1 PUSH2 0x399 JUMP JUMPDEST PUSH2 0x2C0 JUMP JUMPDEST PUSH1 0x40 MLOAD PUSH2 0xAE SWAP2 SWAP1 PUSH2 0x3DC JUMP JUMPDEST PUSH1 0x40 MLOAD DUP1 SWAP2 SUB SWAP1 RETURN JUMPDEST PUSH0 DUP1 SLOAD SWAP1 PUSH2 0x100 EXP SWAP1 DIV PUSH20 0xFFFFFFFFFFFFFFFFFFFFFFFFFFFFFFFFFFFFFFFF AND PUSH20 0xFFFFFFFFFFFFFFFFFFFFFFFFFFFFFFFFFFFFFFFF AND CALLER PUSH20 0xFFFFFFFFFFFFFFFFFFFFFFFFFFFFFFFFFFFFFFFF AND EQ PUSH2 0x10D JUMPI PUSH0 DUP1 REVERT JUMPDEST PUSH0 PUSH1 0x1 PUSH0 DUP4 PUSH20 0xFFFFFFFFFFFFFFFFFFFFFFFFFFFFFFFFFFFFFFFF AND PUSH20 0xFFFFFFFFFFFFFFFFFFFFFFFFFFFFFFFFFFFFFFFF AND DUP2 MSTORE PUSH1 0x20 ADD SWAP1 DUP2 MSTORE PUSH1 0x20 ADD PUSH0 KECCAK256 SLOAD SWAP1 POP PUSH0 PUSH1 0x1 PUSH0 DUP5 PUSH20 0xFFFFFFFFFFFFFFFFFFFFFFFFFFFFFFFFFFFFFFFF AND PUSH20 0xFFFFFFFFFFFFFFFFFFFFFFFFFFFFFFFFFFFFFFFF AND DUP2 MSTORE PUSH1 0x20 ADD SWAP1 DUP2 MSTORE PUSH1 0x20 ADD PUSH0 KECCAK256 DUP2 SWAP1 SSTORE POP DUP2 PUSH20 0xFFFFFFFFFFFFFFFFFFFFFFFFFFFFFFFFFFFFFFFF AND PUSH2 0x8FC DUP3 SWAP1 DUP2 ISZERO MUL SWAP1 PUSH1 0x40 MLOAD PUSH0 PUSH1 0x40 MLOAD DUP1 DUP4 SUB DUP2 DUP6 DUP9 DUP9 CALL SWAP4 POP POP POP POP ISZERO DUP1 ISZERO PUSH2 0x1D3 JUMPI RETURNDATASIZE PUSH0 DUP1 RETURNDATACOPY RETURNDATASIZE PUSH0 REVERT JUMPDEST POP POP POP JUMP JUMPDEST PUSH0 DUP1 SLOAD SWAP1 PUSH2 0x100 EXP SWAP1 DIV PUSH20 0xFFFFFFFFFFFFFFFFFFFFFFFFFFFFFFFFFFFFFFFF AND PUSH20 0xFFFFFFFFFFFFFFFFFFFFFFFFFFFFFFFFFFFFFFFF AND CALLER PUSH20 0xFFFFFFFFFFFFFFFFFFFFFFFFFFFFFFFFFFFFFFFF AND EQ PUSH2 0x22E JUMPI PUSH0 DUP1 REVERT JUMPDEST PUSH0 CALLVALUE SWAP1 POP DUP1 PUSH1 0x1 PUSH0 DUP5 PUSH20 0xFFFFFFFFFFFFFFFFFFFFFFFFFFFFFFFFFFFFFFFF AND PUSH20 0xFFFFFFFFFFFFFFFFFFFFFFFFFFFFFFFFFFFFFFFF AND DUP2 MSTORE PUSH1 0x20 ADD SWAP1 DUP2 MSTORE PUSH1 0x20 ADD PUSH0 KECCAK256 SLOAD PUSH2 0x27B SWAP2 SWAP1 PUSH2 0x422 JUMP JUMPDEST PUSH1 0x1 PUSH0 DUP5 PUSH20 0xFFFFFFFFFFFFFFFFFFFFFFFFFFFFFFFFFFFFFFFF AND PUSH20 0xFFFFFFFFFFFFFFFFFFFFFFFFFFFFFFFFFFFFFFFF AND DUP2 MSTORE PUSH1 0x20 ADD SWAP1 DUP2 MSTORE PUSH1 0x20 ADD PUSH0 KECCAK256 DUP2 SWAP1 SSTORE POP POP POP JUMP JUMPDEST PUSH1 0x1 PUSH1 0x20 MSTORE DUP1 PUSH0 MSTORE PUSH1 0x40 PUSH0 KECCAK256 PUSH0 SWAP2 POP SWAP1 POP SLOAD DUP2 JUMP JUMPDEST PUSH0 DUP1 REVERT JUMPDEST PUSH0 PUSH20 0xFFFFFFFFFFFFFFFFFFFFFFFFFFFFFFFFFFFFFFFF DUP3 AND SWAP1 POP SWAP2 SWAP1 POP JUMP JUMPDEST PUSH0 PUSH2 0x302 DUP3 PUSH2 0x2D9 JUMP JUMPDEST SWAP1 POP SWAP2 SWAP1 POP JUMP JUMPDEST PUSH2 0x312 DUP2 PUSH2 0x2F8 JUMP JUMPDEST DUP2 EQ PUSH2 0x31C JUMPI PUSH0 DUP1 REVERT JUMPDEST POP JUMP JUMPDEST PUSH0 DUP2 CALLDATALOAD SWAP1 POP PUSH2 0x32D DUP2 PUSH2 0x309 JUMP JUMPDEST SWAP3 SWAP2 POP POP JUMP JUMPDEST PUSH0 PUSH1 0x20 DUP3 DUP5 SUB SLT ISZERO PUSH2 0x348 JUMPI PUSH2 0x347 PUSH2 0x2D5 JUMP JUMPDEST JUMPDEST PUSH0 PUSH2 0x355 DUP5 DUP3 DUP6 ADD PUSH2 0x31F JUMP JUMPDEST SWAP2 POP POP SWAP3 SWAP2 POP POP JUMP JUMPDEST PUSH0 PUSH2 0x368 DUP3 PUSH2 0x2D9 JUMP JUMPDEST SWAP1 POP SWAP2 SWAP1 POP JUMP JUMPDEST PUSH2 0x378 DUP2 PUSH2 0x35E JUMP JUMPDEST DUP2 EQ PUSH2 0x382 JUMPI PUSH0 DUP1 REVERT JUMPDEST POP JUMP JUMPDEST PUSH0 DUP2 CALLDATALOAD SWAP1 POP PUSH2 0x393 DUP2 PUSH2 0x36F JUMP JUMPDEST SWAP3 SWAP2 POP POP JUMP JUMPDEST PUSH0 PUSH1 0x20 DUP3 DUP5 SUB SLT ISZERO PUSH2 0x3AE JUMPI PUSH2 0x3AD PUSH2 0x2D5 JUMP JUMPDEST JUMPDEST PUSH0 PUSH2 0x3BB DUP5 DUP3 DUP6 ADD PUSH2 0x385 JUMP JUMPDEST SWAP2 POP POP SWAP3 SWAP2 POP POP JUMP JUMPDEST PUSH0 DUP2 SWAP1 POP SWAP2 SWAP1 POP JUMP JUMPDEST PUSH2 0x3D6 DUP2 PUSH2 0x3C4 JUMP JUMPDEST DUP3 MSTORE POP POP JUMP JUMPDEST PUSH0 PUSH1 0x20 DUP3 ADD SWAP1 POP PUSH2 0x3EF PUSH0 DUP4 ADD DUP5 PUSH2 0x3CD JUMP JUMPDEST SWAP3 SWAP2 POP POP JUMP JUMPDEST PUSH32 0x4E487B7100000000000000000000000000000000000000000000000000000000 PUSH0 MSTORE PUSH1 0x11 PUSH1 0x4 MSTORE PUSH1 0x24 PUSH0 REVERT JUMPDEST PUSH0 PUSH2 0x42C DUP3 PUSH2 0x3C4 JUMP JUMPDEST SWAP2 POP PUSH2 0x437 DUP4 PUSH2 0x3C4 JUMP JUMPDEST SWAP3 POP DUP3 DUP3 ADD SWAP1 POP DUP1 DUP3 GT ISZERO PUSH2 0x44F JUMPI PUSH2 0x44E PUSH2 0x3F5 JUMP JUMPDEST JUMPDEST SWAP3 SWAP2 POP POP JUMP INVALID LOG2 PUSH5 0x6970667358 0x22 SLT KECCAK256 SWAP7 0xE6 0xD5 0xBA 0xAF PUSH24 0x136D532E5CFB0C83890CA82D29FB889625928CECBAF005FE DUP6 PUSH7 0x64736F6C634300 ADDMOD BYTE STOP CALLER "
				},
				"gasEstimates": {
					"creation": {
						"codeDepositCost": "232600",
						"executionCost": "24514",
						"totalCost": "257114"
					},
					"external": {
						"deposit(address)": "infinite",
						"deposits(address)": "2824",
						"withdraw(address)": "infinite"
					}
				},
				"methodIdentifiers": {
					"deposit(address)": "f340fa01",
					"deposits(address)": "fc7e286d",
					"withdraw(address)": "51cff8d9"
				}
			},
			"storageLayout": {
				"storage": [
					{
						"astId": 7,
						"contract": "contracts/Tutorial/Escrow.sol:Escrow",
						"label": "agent",
						"offset": 0,
						"slot": "0",
						"type": "t_address"
					},
					{
						"astId": 11,
						"contract": "contracts/Tutorial/Escrow.sol:Escrow",
						"label": "deposits",
						"offset": 0,
						"slot": "1",
						"type": "t_mapping(t_address,t_uint256)"
					}
				],
				"types": {
					"t_address": {
						"encoding": "inplace",
						"label": "address",
						"numberOfBytes": "20"
					},
					"t_mapping(t_address,t_uint256)": {
						"encoding": "mapping",
						"key": "t_address",
						"label": "mapping(address => uint256)",
						"numberOfBytes": "32",
						"value": "t_uint256"
					},
					"t_uint256": {
						"encoding": "inplace",
						"label": "uint256",
						"numberOfBytes": "32"
					}
				}
			},
			"userdoc": {
				"kind": "user",
				"methods": {},
				"version": 1
			}
		}
	}
}